:020000040800F2
:10000000D004002025010008950100089501000892
:100010009501000895010008950100080000000006
:100020000000000000000000000000009501000832
:1000300095010008000000009501000895010008E6
:100040009501000895010008950100089501000838
:1000500095010008950100083D1E0008ED1F0008ED
:100060009501000895010008950100089501000818
:100070009501000895010008950100089501000808
:100080009501000895010008950100080000000096
:1000900000000000000000000000000095010008C2
:1000A00095010008950100089501000895010008D8
:1000B00095010008D9250008814A0008950100082B
:1000C00095010008950100089501000895010008B8
:1000D00095010008950100089501000895010008A8
:1000E0009501000895010008950100080000000036
:1000F0000000000000000000000000000000000000
:1001000000000000000000000000000000000000EF
:1001100000000000000000009501000895010008A3
:100120005FF808F180B582B000AF4EF66C13C0F6F0
:1001300000037B6040F20003C2F200033B600BE06F
:100140007B681A683B681A603B6803F104033B60F4
:100150007B6803F104037B603A6840F23403C2F227
:1001600000039A42ECD3094809494FF00002884243
:10017000B8BF40F8042BFFF6FAAF00F00FF804F018
:1001800067FD07F10807BD4680BD00003400002070
:10019000D000002080B400AFFEE700BF80B500AF04
:1001A0004FF48053C4F202034FF48052C4F20202AF
:1001B000126842F001021A604FF48052C4F2020247
:1001C0004FF48053C4F2020359684FF00003CFF696
:1001D000FF030B4053604FF48053C4F202034FF40B
:1001E0008052C4F20202126822F0847222F4803239
:1001F0001A604FF48053C4F202034FF48052C4F2E9
:100200000202126822F480221A604FF48053C4F272
:1002100002034FF48052C4F20202526822F4FE023A
:100220005A604FF48053C4F202034FF41F029A60E5
:100230004FF48053C4F202034FF00002DA6200F080
:1002400009F84FF46D43CEF200034FF000629A605C
:1002500080BD00BF80B500AF00F002F880BD00BFD8
:1002600080B483B000AF4FF000037B604FF0000319
:100270003B604FF48053C4F202034FF48052C4F247
:100280000202126842F480321A604FF48053C4F2C2
:1002900002031B6803F400333B607B6803F1010336
:1002A0007B603B68002B03D17B68B3F5A06FECD17A
:1002B0004FF48053C4F202031B6803F40033002B95
:1002C00003D04FF001033B6002E04FF000033B60BE
:1002D0003B68012B6DD14FF48053C4F202034FF4FD
:1002E0008052C4F2020252685A604FF48053C4F242
:1002F00002034FF48052C4F2020252685A604FF473
:100300008053C4F202034FF48052C4F202025268D6
:100310005A604FF48053C4F202034FF48052C4F287
:100320000202526822F47C125A604FF48053C4F2E5
:1003300002034FF48052C4F20202526842F498124F
:100340005A604FF48053C4F202034FF48052C4F257
:100350000202126842F080721A6000BF4FF48053AC
:10036000C4F202031B6803F00073002BF6D04FF4B5
:100370008053C4F202034FF48052C4F20202526866
:1003800022F003025A604FF48053C4F202034FF488
:100390008052C4F20202526842F002025A6000BF68
:1003A0004FF48053C4F202035B6803F00C03082B84
:1003B000F6D107F10C07BD4680BC704780B483B00E
:1003C00000AF0346FB714FF46143CEF2000397F98F
:1003D00007204FEA5212F97901F01F014FF0010096
:1003E00000FA01F143F8221007F10C07BD4680BC6A
:1003F000704700BF80B483B000AF0346FB714FF479
:100400006143CEF2000397F907204FEA5212F979BF
:1004100001F01F014FF0010000FA01F102F120028A
:1004200043F8221007F10C07BD4680BC704700BF9F
:1004300080B483B000AF0346FB804FF48053C4F216
:1004400002034FF48052C4F20202D26942F0010268
:10045000DA614FF0804342F632321A854FF0804322
:100460004FF008021A804FF08043FA889A854FF0C7
:1004700080434FF000029A844FF080434FF0804257
:10048000928A92B242F0010292B29A824FF0804375
:100490004FF08042128A92B222F0010292B21A8286
:1004A0004FF080434FF001021A8000BF4FF08043AD
:1004B0001B8A9BB203F00103002BF7D04FF080435F
:1004C0004FF08042128A92B222F0010292B21A8256
:1004D00007F10C07BD4680BC704700BF80B483B0F5
:1004E00000AF0346FB804FF48053C4F202034FF485
:1004F0008052C4F20202D26942F00102DA614FF086
:1005000080434FF00A021A854FF080434FF00802F3
:100510001A804FF08043FA889A854FF080434FF05D
:1005200000029A844FF080434FF08042928A92B248
:1005300042F0010292B29A824FF080434FF0804223
:10054000128A92B222F0010292B21A824FF08043D4
:100550004FF001021A8000BF4FF080431B8A9BB20C
:1005600003F00103002BF7D04FF080434FF080429F
:10057000128A92B222F0010292B21A8207F10C079B
:10058000BD4680BC704700BF80B400AF4FF48053BD
:10059000C4F202034FF48052C4F20202126842F421
:1005A00080321A6000BF4FF48053C4F202031B680C
:1005B00003F40033002BF6D04FF48053C4F202034F
:1005C0004FF48052C4F20202526822F003025A60D1
:1005D0004FF48053C4F202034FF48052C4F202027B
:1005E000526842F001025A60BD4680BC704700BFAD
:1005F00080B586B000AF78604FF000037B6178680B
:100600000EF0B2F8034603F1FF333B6119E07B695A
:100610007A68D3181B78FB737B697A68D3183A69B8
:1006200079688A1812781A703B697A68D318FA7B4D
:100630001A707B6903F101037B613B6903F1FF33AE
:100640003B617A693B699A42E1DB07F11807BD46D5
:1006500080BD00BF80B584B000AF786039607B6832
:10066000BB60BB68002B03DA7B68C3F100037B60CF
:100670004FF00003FB60FB683A68D018796846F2D7
:100680006763C6F2666383FB01234FEAA3024FEA66
:10069000E173D21A13464FEA83039B184FEA4303D0
:1006A000CA1AD3B203F13003DBB20370FB6803F163
:1006B0000103FB607A6846F26763C6F2666383FBF8
:1006C00002134FEAA3014FEAE273CB1A7B607B6807
:1006D000002BD0DCBB68002B09DAFB683A68D31822
:1006E0004FF02D021A70FB6803F10103FB60FB68F9
:1006F0003A68D3184FF000021A703868FFF778FF95
:1007000007F11007BD4680BD80B485B000AF7860AA
:100710004FF00003FB734FF00003BB604FF000038A
:10072000FB7361E0BB68002B02D14FF00103BB609B
:100730007A68BB681340002B0CD04FF40063C4F2FE
:1007400001034FF40062C4F20102126942F48052C4
:100750001A610BE04FF40063C4F201034FF400622E
:10076000C4F20102126942F080521A6100BF00BF58
:1007700000BF00BF00BF00BF00BF00BF00BF00BF81
:100780004FF40063C4F201034FF40062C4F20102AB
:10079000126942F400421A6100BF00BF00BF00BFEF
:1007A00000BF00BF00BF00BF00BF00BF4FF4006329
:1007B000C4F201034FF40062C4F20102126942F074
:1007C00000421A6100BF00BF00BF00BF00BF00BFF2
:1007D00000BF00BF00BF00BFBB684FEA4303BB6060
:1007E000FB7B03F10103FB73FB7B0F2B9AD907F112
:1007F0001407BD4680BC7047B0B586B000AF7860C6
:100800004FF00003FB754FF00003BB754FF0000382
:100810007B7578684FF00001C4F220110DF036FFAF
:100820000346002B78D078684FF00001C4F2C8214D
:100830000DF08EFD034618460DF076FF03463B6132
:1008400039694CF6CD43CCF6CC43A3FB01234FEAE8
:10085000D30213464FEA83039B184FEA4303CA1A95
:100860001346FB733A694CF6CD43CCF6CC43A3FB5D
:1008700002134FEAD3033B6139694CF6CD43CCF602
:10088000CC43A3FB01234FEAD30213464FEA830371
:100890009B184FEA4303CA1A1346BB73BA7B4EF246
:1008A000C873C0F6000353F82220F97B4EF2F073B0
:1008B000C0F6000353F821301343BB60BB681846F1
:1008C000FFF722FF3A694CF6CD43CCF6CC43A3FBAD
:1008D00002134FEAD3033B6139694CF6CD43CCF6A2
:1008E000CC43A3FB01234FEAD30213464FEA830311
:1008F0009B184FEA4303CA1A1346FB73FA7B4EF266
:10090000F073C0F6000353F8223003F58073BB6028
:10091000BB681846FFF7F8FE4FF001031C467868E5
:100920004FF00001C4F220110DF0C4FE0346002B6D
:1009300002D14FF000031C46E5B24FF001031C4604
:1009400078684FF00001C4F2C8210DF09FFE034605
:10095000002B02D14FF000031C46E3B22B40DBB268
:10096000002B00F09D8078684FF00001C4F2C82190
:100970000DF0EEFC034618460DF0D6FE03463B6133
:1009800039694CF6CD43CCF6CC43A3FB01234FEAA7
:10099000D30213464FEA83039B184FEA4303CA1A54
:1009A0001346FB733A694CF6CD43CCF6CC43A3FB1C
:1009B00002134FEAD3033B6139694CF6CD43CCF6C1
:1009C000CC43A3FB01234FEAD30213464FEA830330
:1009D0009B184FEA4303CA1A1346BB73BA7B4EF205
:1009E000C873C0F6000353F82220F97B4EF2F0736F
:1009F000C0F6000353F821301343BB60BB681846B0
:100A0000FFF782FE3A694CF6CD43CCF6CC43A3FB0C
:100A100002134FEAD3033B6139694CF6CD43CCF660
:100A2000CC43A3FB01234FEAD30213464FEA8303CF
:100A30009B184FEA4303CA1A1346FB733A694CF6F4
:100A4000CD43CCF6CC43A3FB02134FEAD3033B6167
:100A500039694CF6CD43CCF6CC43A3FB01234FEAD6
:100A6000D30213464FEA83039B184FEA4303CA1A83
:100A70001346BB73BA7B4EF2C873C0F6000353F83B
:100A80002220F97B4EF2F073C0F6000353F82130B8
:100A900003F580731343BB60BB681846FFF734FE51
:100AA0004FF001031C4678684FF00001C4F2C821E2
:100AB0000DF000FE0346002B02D14FF000031C4650
:100AC000E5B24FF001031C4678684FF00001C4F214
:100AD0007A410DF0DBFD0346002B02D14FF00003FD
:100AE0001C46E3B22B40DBB2002B00F09D807868FF
:100AF0004FF00001C4F220110DF02AFC0346184605
:100B00000DF012FE03463B6139694CF6CD43CCF63D
:100B1000CC43A3FB01234FEAD30213464FEA8303DE
:100B20009B184FEA4303CA1A1346FB733A694CF603
:100B3000CD43CCF6CC43A3FB02134FEAD3033B6176
:100B400039694CF6CD43CCF6CC43A3FB01234FEAE5
:100B5000D30213464FEA83039B184FEA4303CA1A92
:100B60001346BB73BA7B4EF2C873C0F6000353F84A
:100B70002220F97B4EF2F073C0F6000353F82130C7
:100B800003F500531343BB60BB681846FFF7BCFD79
:100B90003A694CF6CD43CCF6CC43A3FB02134FEAA3
:100BA000D3033B6139694CF6CD43CCF6CC43A3FB70
:100BB00001234FEAD30213464FEA83039B184FEAFF
:100BC0004303CA1A1346FB733A694CF6CD43CCF67D
:100BD000CC43A3FB02134FEAD3033B6139694CF6C4
:100BE000CD43CCF6CC43A3FB01234FEAD3021346FB
:100BF0004FEA83039B184FEA4303CA1A1346BB7399
:100C0000BA7B4EF2C873C0F6000353F82220F97B7A
:100C10004EF2F073C0F6000353F821301343BB606B
:100C2000BB681846FFF770FD4FF001031C4678685B
:100C30004FF00001C4F27A410DF03CFD0346002B59
:100C400002D14FF000031C46E5B24FF001031C46F1
:100C500078684FF48041C4F21C610DF017FD034623
:100C6000002B02D14FF000031C46E3B22B40DBB255
:100C7000002B00F0938078680DF056FD03463B6131
:100C800039694CF6CD43CCF6CC43A3FB01234FEAA4
:100C9000D30213464FEA83039B184FEA4303CA1A51
:100CA0001346FB733A694CF6CD43CCF6CC43A3FB19
:100CB00002134FEAD3033B6139694CF6CD43CCF6BE
:100CC000CC43A3FB01234FEAD30213464FEA83032D
:100CD0009B184FEA4303CA1A1346BB73BA7B4EF202
:100CE000C873C0F6000353F82220F97B4EF2F0736C
:100CF000C0F6000353F821301343BB60BB681846AD
:100D0000FFF702FD3A694CF6CD43CCF6CC43A3FB8A
:100D100002134FEAD3033B6139694CF6CD43CCF65D
:100D2000CC43A3FB01234FEAD30213464FEA8303CC
:100D30009B184FEA4303CA1A1346FB733A694CF6F1
:100D4000CD43CCF6CC43A3FB02134FEAD3033B6164
:100D500039694CF6CD43CCF6CC43A3FB01234FEAD3
:100D6000D30213464FEA83039B184FEA4303CA1A80
:100D70001346BB73BA7B4EF2C873C0F6000353F838
:100D80002220F97B4EF2F073C0F6000353F82130B5
:100D90001343BB60BB681846FFF7B6FC4FF44063D3
:100DA000C4F201034FF44062C4F20102126942F03E
:100DB00008021A6100BF00BF00BF00BF00BF00BF34
:100DC00000BF00BF00BF00BF4FF44063C4F2010387
:100DD0004FF44062C4F20102126942F400221A6127
:100DE00000BF00BF00BF00BF00BF00BF00BF00BF0B
:100DF00000BF00BF07F11807BD46B0BD80B586B083
:100E000000AF78604FF00003FB754FF00003BB7537
:100E10004FF000037B757B683B6139694CF6CD432D
:100E2000CCF6CC43A3FB01234FEAD30213464FEA8F
:100E300083039B184FEA4303CA1A1346FB733A69AC
:100E40004CF6CD43CCF6CC43A3FB02134FEAD303BD
:100E50003B6139694CF6CD43CCF6CC43A3FB01236F
:100E60004FEAD30213464FEA83039B184FEA43032A
:100E7000CA1A1346BB73BA7B4EF2C873C0F600039E
:100E800053F82220F97B4EF2F073C0F6000353F8BA
:100E900021301343BB60BB681846FFF735FC3A6945
:100EA0004CF6CD43CCF6CC43A3FB02134FEAD3035D
:100EB0003B6139694CF6CD43CCF6CC43A3FB01230F
:100EC0004FEAD30213464FEA83039B184FEA4303CA
:100ED000CA1A1346FB733A694CF6CD43CCF6CC43A1
:100EE000A3FB02134FEAD3033B6139694CF6CD43B0
:100EF000CCF6CC43A3FB01234FEAD30213464FEABF
:100F000083039B184FEA4303CA1A1346BB73FA7B49
:100F10004EF2F073C0F6000353F8223043F4B043AE
:100F200043F00503BB60BB681846FFF7EDFB4FF4C9
:100F30004063C4F201034FF44062C4F2010212693B
:100F400042F008021A6100BF00BF00BF00BF00BF2F
:100F500000BF00BF00BF00BF00BF4FF44063C4F23A
:100F600001034FF44062C4F20102126942F400220C
:100F70001A6100BF00BF00BF00BF00BF00BF00BFBD
:100F800000BF00BF00BF07F11807BD4680BD00BF0E
:100F900080B483B000AF78607A6813464FEA4303A9
:100FA0009B184FEAC3037B6003E07B6803F1FF33C8
:100FB0007B607B68002BF8D107F10C07BD4680BC35
:100FC000704700BF80B500AF4FF40063C4F2010367
:100FD0004FF020021A614FF00100FFF7D9FF4FF4E4
:100FE0000063C4F201034FF040021A614FF00100A8
:100FF000FFF7CEFF4FF40063C4F201034FF4001279
:101000001A614FF00100FFF7C3FF4FF40063C4F211
:1010100001034FF480021A614FF00100FFF7B8FF9F
:1010200080BD00BF80B500AF4FF40063C4F2010380
:101030004FF040021A614FF00100FFF7A9FF4FF493
:101040000063C4F201034FF020021A614FF0010067
:10105000FFF79EFF80BD00BF80B500AFFFF7E2FF46
:1010600080BD00BF80B500AF4FF40063C4F2010340
:101070004FF040021A614FF00100FFF789FF4FF473
:101080000063C4F201034FF480021A614FF00100C3
:10109000FFF77EFF80BD00BF80B500AF4FF4006357
:1010A000C4F201034FF020021A614FF00100FFF774
:1010B0006FFF4FF40063C4F201034FF040021A6166
:1010C0004FF00100FFF764FF4FF40063C4F2010327
:1010D0004FF480021A614FF00100FFF759FF4FF4FF
:1010E0000063C4F201034FF400121A614FF00100D3
:1010F000FFF74EFF80BD00BF80B584B000AF034650
:10110000FB714FF00003FB7334E0FB795BB2002B03
:1011100007DA4FF40063C4F201034FF020021A61B2
:1011200006E04FF40063C4F201034FF400121A61A9
:10113000FB794FEA4303FB714FF00100FFF728FFF3
:101140004FF40063C4F201034FF040021A614FF004
:101150000100FFF71DFF4FF40063C4F201034FF4D9
:1011600080021A614FF00100FFF712FFFB7B03F1D1
:101170000103FB73FB7B072BC7D907F11007BD46A3
:1011800080BD00BF80B582B000AF4FF00003BB71DF
:101190004FF00003FB712AE04FF40063C4F2010337
:1011A0004FF040021A614FF00100FFF7F1FEBB79EA
:1011B0004FEA4303BB714FF40063C4F201039B6821
:1011C00003F02003002B03D0BB7943F00103BB7174
:1011D0004FF40063C4F201034FF480021A614FF030
:1011E0000100FFF7D5FEFB7903F10103FB71FB79E9
:1011F000072BD1D9BB79184607F10807BD4680BD3A
:1012000080B584B000AF0346FB71FFF7DBFE4FF003
:10121000A000FFF771FFFFF725FFFB791846FFF7E6
:101220006BFFFFF71FFFFFF7CDFE4FF0A100FFF7A9
:1012300063FFFFF717FFFFF7A5FF0346FB73FFF7F9
:101240002BFFFFF7EFFEFB7B184607F11007BD46AB
:1012500080BD00BF80B582B000AF02460B46FA7178
:10126000BB71FFF7AFFE4FF0A000FFF745FFFFF7A0
:10127000F9FEFB791846FFF73FFFFFF7F3FEBB7956
:101280001846FFF739FFFFF7EDFE4FF40063C4F295
:1012900001034FF400121A61FFF7C4FE4FF47A7095
:1012A000FFF776FE07F10807BD4680BD80B582B026
:1012B00000AF03463960FB713B68DBB2FA79104638
:1012C0001946FFF7C7FFFB7903F10103DAB23B6868
:1012D0004FEA1323DBB210461946FFF7BBFFFB7939
:1012E00003F10203DAB23B684FEA1343DBB2104664
:1012F0001946FFF7AFFFFB7903F10303DAB23B684E
:101300004FEA1363DBB210461946FFF7A3FF07F15C
:101310000807BD4680BD00BF80B584B000AF03465E
:10132000FB714FF00003FB60FB7903F10303DBB2B9
:101330001846FFF765FF03464FEA0363FA68D318C0
:10134000FB60FB7903F10203DBB21846FFF758FF9D
:1013500003464FEA0343FA68D318FB60FB7903F1B5
:101360000103DBB21846FFF74BFF03464FEA0323A6
:10137000FA68D318FB60FB791846FFF741FF034674
:10138000FA68D318FB60FB68184607F11007BD46E2
:1013900080BD00BF80B582B000AF03463960FB71ED
:1013A00038684FF00001C4F2C8210CF0D1FF0346A9
:1013B00018460DF0B9F90346FA7910461946FFF7B9
:1013C00075FF07F10807BD4680BD00BF00000000A3
:1013D00080B582B000AF0346FB71FB791846FFF77A
:1013E0009BFF034618460CF045FB02460B46104691
:1013F000194609A3D3E900230CF0B2FB02460B46C1
:10140000104619460CF046FE0346184607F1080739
:10141000BD4680BDAFF300807B14AE47E17A843FC8
:1014200080B400AF4FF48053C4F202034FF48052F3
:10143000C4F20202926942F004029A614FF48053AE
:10144000C4F202034FF48052C4F20202926942F0E5
:1014500008029A614FF48053C4F202034FF48052A1
:10146000C4F20202926942F010029A614FF4805372
:10147000C4F202034FF48052C4F20202926942F0B5
:1014800001029A614FF00003C4F201034FF0000221
:10149000C4F20102526842F000725A604FF40063D5
:1014A000C4F201034FF40062C4F20102526842F434
:1014B00000525A604FF40063C4F201034FF400621B
:1014C000C4F20102526822F480525A604FF4006361
:1014D000C4F201034FF40062C4F20102526822F424
:1014E00040425A604FF48053C4F201034FF48052DB
:1014F000C4F20102526842F400125A604FF4805361
:10150000C4F201034FF48052C4F20102526822F483
:1015100080125A604FF48053C4F201034FF480529A
:10152000C4F20102526822F440025A604FF4805320
:10153000C4F201034FF48052C4F20102526842F037
:1015400000725A604FF48053C4F201034FF480528A
:10155000C4F20102526822F080725A604FF4805344
:10156000C4F201034FF48052C4F20102526822F027
:1015700040625A604FF48053C4F201034FF480522A
:10158000C4F20102526842F000525A604FF4805394
:10159000C4F201034FF48052C4F20102526822F0F7
:1015A00080525A604FF48053C4F201034FF48052CA
:1015B000C4F20102526822F040425A604FF40063C4
:1015C000C4F201034FF40062C4F20102126842F453
:1015D00000121A604FF40063C4F201034FF400627A
:1015E000C4F20102126822F480121A604FF4006300
:1015F000C4F201034FF40062C4F20102126822F443
:1016000000021A604FF40063C4F201034FF4006259
:10161000C4F20102126842F480021A604FF40063BF
:10162000C4F201034FF40062C4F20102126842F0F6
:1016300000721A604FF40063C4F201034FF40062B9
:10164000C4F20102126822F080721A604FF4006343
:10165000C4F201034FF40062C4F20102126822F0E6
:1016600000621A604FF40063C4F201034FF4006299
:10167000C4F20102126842F080621A604FF4006303
:10168000C4F201034FF40062C4F20102126822F0B6
:1016900040521A604FF40063C4F201034FF4006239
:1016A000C4F20102126842F000421A604FF4006373
:1016B000C4F201034FF40062C4F20102126822F086
:1016C00080421A604FF40063C4F201034FF40062D9
:1016D000C4F20102D26842F08002DA604FF4406343
:1016E000C4F201034FF44062C4F20102126822F016
:1016F00003021A604FF44063C4F201034FF44062E6
:10170000C4F20102126842F008021A604FF440630A
:10171000C4F201034FF44062C4F20102126822F0E5
:1017200004021A604FF44063C4F201034FF44062B4
:10173000C4F20102D26842F00102DA604FF4406361
:10174000C4F201034FF44062C4F20102126822F0B5
:1017500030021A604FF44063C4F201034FF4406258
:10176000C4F20102126842F080021A604FF4406332
:10177000C4F201034FF44062C4F20102126822F085
:1017800040021A604FF44063C4F201034FF4406218
:10179000C4F20102D26842F00202DA604FF4406300
:1017A000C4F201034FF44062C4F20102126822F451
:1017B00040721A604FF44063C4F201034FF4406278
:1017C000C4F20102126842F400621A604FF44063EE
:1017D000C4F201034FF44062C4F20102126822F421
:1017E00080621A604FF44063C4F201034FF4406218
:1017F000C4F20102D26842F00402DA604FF440639E
:10180000C4F201034FF44062C4F20102526822F0B4
:1018100040725A604FF44063C4F201034FF44062D7
:10182000C4F20102526842F000625A604FF4406311
:10183000C4F201034FF44062C4F20102526822F084
:1018400080625A604FF44063C4F201034FF4406277
:10185000C4F20102D26842F48042DA604FF440637D
:10186000C4F201034FF44062C4F20102526822F450
:1018700040125A604FF44063C4F201034FF44062D7
:10188000C4F20102526842F400025A604FF440630D
:10189000C4F201034FF44062C4F20102526822F420
:1018A00080025A604FF44063C4F201034FF4406277
:1018B000C4F20102D26842F40052DA604FF440638D
:1018C000C4F201034FF44062C4F20102526822F4F0
:1018D00040325A604FF44063C4F201034FF4406257
:1018E000C4F20102526842F400225A604FF440638D
:1018F000C4F201034FF44062C4F20102526822F4C0
:1019000080225A604FF44063C4F201034FF44062F6
:10191000C4F20102D26842F48052DA604FF44063AC
:10192000C4F201034FF44062C4F20102526822F093
:1019300040525A604FF44063C4F201034FF44062D6
:10194000C4F20102526842F000425A604FF4406310
:10195000C4F201034FF44062C4F20102526822F063
:1019600080425A604FF44063C4F201034FF4406276
:10197000C4F20102D26842F40042DA604FF400631C
:10198000C4F201034FF40062C4F20102526822F073
:1019900003025A604FF40063C4F201034FF4006283
:1019A000C4F20102526842F008025A604FF4006328
:1019B000C4F201034FF40062C4F20102526822F043
:1019C00004025A604FF40063C4F201034FF4006252
:1019D000C4F20102D26842F48072DA604FF400630C
:1019E000C4F201034FF40062C4F20102526842F4EF
:1019F00000325A604FF40063C4F201034FF40062F6
:101A0000C4F20102526822F480325A604FF400633B
:101A1000C4F201034FF40062C4F20102526822F4DE
:101A200040225A604FF40063C4F201034FF4006295
:101A3000C4F20102526842F000525A604FF400634F
:101A4000C4F201034FF40062C4F20102526822F0B2
:101A500080525A604FF40063C4F201034FF40062F5
:101A6000C4F20102526822F040425A604FF44063CF
:101A7000C4F201034FF44062C4F20102126842F45E
:101A800000521A604FF44063C4F201034FF4406205
:101A9000C4F20102126822F480521A604FF44063CB
:101AA000C4F201034FF44062C4F20102126822F44E
:101AB00040421A604FF40063C4F201034FF4006225
:101AC000C4F20102126842F400321A604FF400635B
:101AD000C4F201034FF40062C4F20102126822F45E
:101AE00080321A604FF40063C4F201034FF40062C5
:101AF000C4F20102126822F440221A604FF400631B
:101B0000C4F201034FF010021A614FF40063C4F2F3
:101B100001034FF40062C4F20102126822F00302D2
:101B20001A604FF40063C4F201034FF40062C4F280
:101B30000102126822F030021A604FF00003C4F272
:101B400001034FF00002C4F2010292689A604FF064
:101B50000003C4F201034FF00002C4F201029268D4
:101B60009A604FF48063C4F201034FF48062C4F2C0
:101B70000102126842F003021A604FF48063C4F25B
:101B800001034FF48062C4F20102D26842F0030202
:101B9000DA604FF48053C4F202034FF48052C4F26F
:101BA0000202D26942F40032DA614FF40063C4F2F7
:101BB00001034FF40062C4F20102126842F4407261
:101BC0001A604FF40063C4F201034FF40062C4F2E0
:101BD0000102126822F440621A604FF40063C4F2FA
:101BE00001034FF40062C4F20102126842F4006281
:101BF0001A604FF48843C4F200034FF48842C4F2E1
:101C00000002928992B242F0080292B29A814FF495
:101C10008843C4F200034FF490621A814FF4884362
:101C2000C4F200034FF48842C4F20002128992B257
:101C30001A814FF48843C4F200034FF48842C4F27F
:101C40000002928992B242F4005292B29A814FF409
:101C50008053C4F202034FF48052C4F2020292692C
:101C600042F480429A614FF40063C4F201034FF4DE
:101C70000062C4F20102526842F030025A604FF42E
:101C80000063C4F201034FF40062C4F2010252681F
:101C900022F0C0025A604FF40063C4F201034FF413
:101CA0000062C4F20102526842F080025A604FF4AE
:101CB0006053C4F201034FF46052C4F201029289EE
:101CC00092B242F00C0292B29A814FF46053C4F285
:101CD00001034FF490621A814FF46053C4F2010380
:101CE0004FF46052C4F20102128992B21A814FF489
:101CF0006053C4F201034FF46052C4F201029289AE
:101D000092B242F4005292B29A81BD4680BC7047B2
:101D100080B485B000AF0346FB71FB79072B33D845
:101D200001A252F823F000BF491D0008511D000810
:101D3000591D0008611D0008691D0008711D00087B
:101D4000791D0008811D00084FF00203FB711FE0A0
:101D50004FF00403FB711BE04FF00803FB7117E029
:101D60004FF01003FB7113E04FF02003FB710FE005
:101D70004FF04003FB710BE04FF08003FB7107E075
:101D80004FF00003FB7103E04FF00003FB7100BF55
:101D90004FF08003BB734FF00003FB7338E04FF448
:101DA0008053C4F201034FF000521A61FA79BB7BF1
:101DB0001340DBB2002B07D04FF48053C4F2010371
:101DC0004FF400421A6106E04FF48053C4F201035D
:101DD0004FF000421A614FF48053C4F201034FF4F4
:101DE00000521A614FF48053C4F201034FF00042D5
:101DF0001A614FF48053C4F201034FF000521A618C
:101E0000BB7B4FEA5303BB73FB7B03F10103FB7303
:101E1000FB7B072BC3D94FF48053C4F201034FF46B
:101E200080421A614FF48053C4F201034FF08042A4
:101E30001A6107F11407BD4680BC704780B500AF3A
:101E40004FF48063C4F201034FF48062C4F20102D4
:101E5000526942F001025A614FF00600FEF7CAFAD9
:101E600040F27403C2F200034FF000021A604FF414
:101E70000063C4F201039B6803F00103002B0BD144
:101E800040F27403C2F200031B6803F1010240F246
:101E90007403C2F200031A604FF40063C4F201033A
:101EA0009B6803F00103002B0BD140F27403C2F2D4
:101EB00000031B6803F1010240F27403C2F2000345
:101EC0001A604FF40063C4F201039B6803F001033E
:101ED000002B0BD140F27403C2F200031B6803F124
:101EE000010240F27403C2F200031A604FF400636F
:101EF000C4F201039B6803F00103002B0BD140F2F5
:101F00007403C2F200031B6803F1010240F2740380
:101F1000C2F200031A604FF40063C4F201039B682D
:101F200003F00103002B0BD140F27403C2F2000353
:101F30001B6803F1010240F27403C2F200031A604D
:101F400040F27403C2F200031B68052B48D140F233
:101F5000C803C2F200031A6840F24003C2F2000351
:101F60001B68104619460CF0EBF803461A4640F27F
:101F7000C803C2F200031A6040F28003C2F20003F9
:101F80004FF001021A7040F2C803C2F200031B684E
:101F90001846FEF731FC40F20303C2F200034FF093
:101FA00001021A7040F26C03C2F200031B6818466B
:101FB0000CF0BAFB024640F28803C2F200031A603A
:101FC0004FF40063C4F201039B6803F08003002B0D
:101FD00006D140F23403C2F200034FF001021A703E
:101FE0004FF00600FEF7EAF980BD00BF80B500AFF4
:101FF0004FF48063C4F201034FF48062C4F2010223
:10200000526942F002025A614FF00700FEF7F2F9FE
:1020100040F27403C2F200034FF000021A604FF462
:102020000063C4F201039B6803F00103002B0BD192
:1020300040F27403C2F200031B6803F1010240F294
:102040007403C2F200031A604FF40063C4F2010388
:102050009B6803F00103002B0BD140F27403C2F222
:1020600000031B6803F1010240F27403C2F2000393
:102070001A604FF40063C4F201039B6803F001038C
:10208000002B0BD140F27403C2F200031B6803F172
:10209000010240F27403C2F200031A604FF40063BD
:1020A000C4F201039B6803F00103002B0BD140F243
:1020B0007403C2F200031B6803F1010240F27403CF
:1020C000C2F200031A604FF40063C4F201039B687C
:1020D00003F00103002B0BD140F27403C2F20003A2
:1020E0001B6803F1010240F27403C2F200031A609C
:1020F00040F27403C2F200031B68052B48D140F282
:10210000C803C2F200031A6840F26803C2F2000377
:102110001B68104619460CF013F803461A4640F2A5
:10212000C803C2F200031A6040F28003C2F2000347
:102130004FF001021A7040F2C803C2F200031B689C
:102140001846FEF759FB40F20303C2F200034FF0BA
:1021500001021A7040F26C03C2F200031B681846B9
:102160000CF0E2FA024640F28803C2F200031A6061
:102170004FF40063C4F201039B6803F08003002B5B
:1021800006D140F23403C2F200034FF001021A708C
:102190004FF00700FEF712F980BD00BF80B483B096
:1021A00000AF0346FB7100BF4FF48843C4F2000345
:1021B0001B889BB203F08003002BF5D04FF48843BB
:1021C000C4F20003FA7992B29A8007F10C07BD4677
:1021D00080BC704780B500AF4FF48053C4F2020357
:1021E0004FF48052C4F20202D26942F00202DA6174
:1021F0004FF48063C4F200034FF47A729A854FF46F
:102200008063C4F2000342F6F7221A854FF480631C
:10221000C4F200034FF000029A844FF48063C4F2CA
:1022200000034FF008021A804FF48063C4F20003E9
:102230004FF48062C4F20002928992B222F001024D
:1022400092B29A814FF48063C4F200034FF480622B
:10225000C4F20002928A92B242F0010292B29A82D1
:102260004FF48063C4F200034FF48062C4F20002B2
:10227000128A92B222F0010292B21A824FF4806363
:10228000C4F200034FF48062C4F20002928992B259
:1022900042F0010292B29A814FF01D00FEF78EF8D3
:1022A0004FF48063C4F200034FF48062C4F2000272
:1022B000128892B242F0010292B21A8080BD00BF31
:1022C00080B500AF4FF48053C4F202034FF4805244
:1022D000C4F20202D26942F00402DA614FF40063F0
:1022E000C4F200034FF0C8029A854FF40063C4F2B1
:1022F000000342F6F7221A854FF40063C4F200038C
:102300004FF000029A844FF40063C4F200034FF0D0
:1023100008021A804FF40063C4F200034FF4006215
:10232000C4F20002928992B222F0010292B29A8122
:102330004FF40063C4F200034FF40062C4F20002E1
:10234000928A92B242F0010292B29A824FF40063F2
:10235000C4F200034FF40062C4F20002128A92B287
:1023600022F0010292B21A824FF40063C4F2000319
:102370004FF40062C4F20002928992B242F001026C
:1023800092B29A814FF01E00FEF718F84FF40063E6
:10239000C4F200034FF40062C4F20002128892B249
:1023A00042F0010292B21A8080BD00BF80B500AF3A
:1023B0004FF00000FFF7ACFC4FF03000FFF7EEFEEF
:1023C0004FF00A00FEF78AF84FF03100FFF7E6FE03
:1023D0004FF00A00FEF782F84FF03200FFF7DEFE02
:1023E0004FF00A00FEF77AF84FF03300FFF7D6FE01
:1023F0004FF00A00FEF772F84FF03400FFF7CEFE00
:102400004FF00A00FEF76AF84FF03500FFF7C6FEFE
:102410004FF00A00FEF762F84FF03600FFF7BEFEFD
:102420004FF00A00FEF75AF84FF03700FFF7B6FEFC
:102430004FF00A00FEF752F880BD00BF80B584B0AF
:1024400000AF78600B46FB7078680CF047F90346E4
:10245000FB60F86840F24401C2F20001FEF7FAF8AE
:1024600040F24400C2F200000AF00CFAF8680BF0E7
:102470001BFF0346786819460BF060FE03467B603D
:10248000FB78012B2ED140F24403C2F200034FF03F
:102490002C021A8040F24400C2F200000AF0F2F965
:1024A00078684FF00001C4F220110BF051FF034691
:1024B0007B6078680CF012F90346FB60FB68002B28
:1024C00003DAFB68C3F10003FB60F86840F24401E3
:1024D000C2F20001FEF7BEF840F24400C2F2000072
:1024E0000AF0D0F9FB78022B3ED140F24403C2F24D
:1024F00000034FF02C021A8040F24400C2F20000A8
:102500000AF0C0F978684FF00001C4F2C8210BF05E
:102510001FFF03467B6078680CF0E0F80346FB6021
:10252000FB68002B03DAFB68C3F10003FB60FB6868
:10253000092B0CDC40F24403C2F200034FF03002DE
:102540001A8040F24400C2F200000AF09BF9F868D9
:1025500040F24401C2F20001FEF77CF840F2440070
:10256000C2F200000AF08EF9FB78032B2ED140F264
:102570004403C2F200034FF02C021A8040F24400E0
:10258000C2F200000AF07EF978684FF00001C4F250
:102590007A410BF0DDFE03467B6078680CF09EF814
:1025A0000346FB60FB68002B03DAFB68C3F1000302
:1025B000FB60F86840F24401C2F20001FEF74AF8FD
:1025C00040F24400C2F200000AF05CF907F1100783
:1025D000BD4680BD00000000B0B500AF4FF4806381
:1025E000C4F200034FF48062C4F20002128A92B275
:1025F00022F0010292B21A8240F28D03C2F200036D
:102600004FF000021A704FF44053C4F200034AF630
:10261000AA221A6040F2C803C2F200031B681846DF
:102620004FF000010CF050F80346002B02F0E0815F
:1026300040F20003C2F200031B78002B42F0258118
:1026400040F2B003C2F200031B6803F1010240F242
:10265000B003C2F200031A6040F28E03C2F200031C
:102660004FF001021A7040F26C03C2F200031B68C3
:1026700018460CF059F8024640F28803C2F20003F3
:102680001A6040F23403C2F200031B78002B40F0C2
:10269000778640F2CD03C2F200031B78012B40F095
:1026A000058140F2C803C2F200031B6818460BF014
:1026B00003FA04460D4640F29003C2F200031B6881
:1026C00018460BF0F9F902460B4610461946BCA312
:1026D000D3E900230BF044FA02460B462046294674
:1026E0000BF068FB02460B46104619460BF0D2FC75
:1026F000024640F28403C2F200031A6040F28403EF
:10270000C2F200031B6818464FF00001C4F27021AA
:102710000BF0D2FE034618460CF006F8024640F2D3
:10272000B803C2F200031A6040F28403C2F200034D
:102730001C6840F2B803C2F200031A6813464FEA5D
:1027400003139B1A4FEA830318460BF0A9FD0346B7
:10275000204619460BF0F2FC034618460BF0E4FF46
:10276000024640F23C03C2F200031A6040F2B80392
:10277000C2F200031B6818460BF07CF904460D46B4
:1027800040F23C03C2F200031B6818460BF072F9DA
:1027900002460B46104619468BA3D3E900230BF0E3
:1027A000DFF902460B46204629460BF027F8024681
:1027B0000B46104619460BF06DFC024640F28403AE
:1027C000C2F200031A6040F2C803C2F200031B68A1
:1027D00018460BF071F904460D4640F29003C2F220
:1027E00000031B6818460BF067F902460B461046BB
:1027F000194673A3D3E900230BF0B2F902460B4646
:10280000204629460AF0F8FF02460B4610461946B4
:102810000BF040FC024640F2C803C2F200031A600B
:1028200040F2C803C2F200031B6818460BF044F9DB
:1028300002460B461046194663A3D3E900230BF06A
:1028400001FC0346002B31D040F28E03C2F200039C
:102850004FF000021A7040F2C803C2F200034FF0BA
:1028600000021A6040F20003C2F200034FF00102BE
:102870001A7040F2CD03C2F200034FF000021A704A
:102880004FF00600FDF7B6FD4FF00700FDF7B2FD73
:10289000FFF78CFD4FF4FA70FDF7CAFD4FF006000C
:1028A000FDF78CFD4FF00700FDF788FD40F2650352
:1028B000C2F200031B78012B40F00E8140F2C803E6
:1028C000C2F200031B6818460BF0F6F804460D46EA
:1028D00040F2C003C2F200031B6818460BF0ECF88C
:1028E00002460B461046194635A3D3E900230BF0E8
:1028F00037F902460B46204629460BF05BFA0246A2
:102900000B46104619460BF0C5FB024640F2840305
:10291000C2F200031A6040F28403C2F200031B6893
:1029200018464FF00001C4F270210BF0C5FD0346BC
:1029300018460BF0F9FE024640F2B803C2F200035B
:102940001A6040F28403C2F200031C6840F2B8032C
:10295000C2F200031A6813464FEA03139B1A4FEAA8
:10296000830318460BF09CFC0346204619460BF0E7
:10297000E5FB034618460BF0D7FE024640F23C0347
:10298000C2F200031A6040F2B803C2F200031B68EF
:1029900018460BF06FF804460D4640F23C03C2F2B5
:1029A00000031B6818460BF065F802460B461046FC
:1029B000194605A3D3E900230BF0D2F8024607E03D
:1029C000D26F5F07CE19913F7B14AE47E17A843F07
:1029D0000B46204629460AF011FF02460B461046D8
:1029E00019460BF057FB024640F28403C2F2000383
:1029F0001A6040F2C803C2F200031B6818460BF0CD
:102A00005BF804460D4640F2C003C2F200031B68A7
:102A100018460BF051F802460B46104619469CA387
:102A2000D3E900230BF09CF802460B4620462946CA
:102A30000AF0E2FE02460B46104619460BF02AFB4E
:102A4000024640F2C803C2F200031A6040F2C80313
:102A5000C2F200031B6818460BF02EF802460B4624
:102A6000104619468CA3D3E900230BF0EBFA03467A
:102A7000002B31D040F28E03C2F200034FF000026F
:102A80001A7040F2C803C2F200034FF000021A604D
:102A900040F20003C2F200034FF001021A7040F24C
:102AA0006503C2F200034FF000021A704FF00600F7
:102AB000FDF7A0FC4FF00700FDF79CFCFFF776FC4C
:102AC0004FF4FA70FDF7B4FC4FF00600FDF776FC0A
:102AD0004FF00700FDF772FC40F28C03C2F20003D6
:102AE0001B78012B40F00E8140F2C803C2F20003B4
:102AF0001B6818460AF0E0FF04460D4640F27803D2
:102B0000C2F200031B6818460AF0D6FF02460B46C5
:102B1000104619465EA3D3E900230BF021F80246C4
:102B20000B46204629460BF045F902460B46104657
:102B300019460BF0AFFA024640F28403C2F20003DA
:102B40001A6040F28403C2F200031B6818464FF07B
:102B50000001C4F270210BF0AFFC034618460BF0E5
:102B6000E3FD024640F2B803C2F200031A6040F2ED
:102B70008403C2F200031C6840F2B803C2F20003EF
:102B80001A6813464FEA03139B1A4FEA8303184649
:102B90000BF086FB0346204619460BF0CFFA03469E
:102BA00018460BF0C1FD024640F23C03C2F200039E
:102BB0001A6040F2B803C2F200031B6818460AF01C
:102BC00059FF04460D4640F23C03C2F200031B6865
:102BD00018460AF04FFF02460B46104619462EA330
:102BE000D3E900230AF0BCFF02460B4620462946E3
:102BF0000AF004FE02460B46104619460BF04AFA4C
:102C0000024640F28403C2F200031A6040F2C80395
:102C1000C2F200031B6818460AF04EFF04460D4638
:102C200040F27803C2F200031B6818460AF044FF22
:102C300002460B461046194615A3D3E900230AF0B5
:102C40008FFF02460B46204629460AF0D5FD024674
:102C50000B46104619460BF01DFA024640F2C80317
:102C6000C2F200031A6040F2C803C2F200031B68FC
:102C700018460AF021FF02460B461046194606A3E5
:102C8000D3E900230BF0DEF90346002B3AD007E02E
:102C9000D26F5F07CE19913F7B14AE47E17A843F34
:102CA00040F28E03C2F200034FF000021A7040F2AD
:102CB000C803C2F200034FF000021A6040F20003A2
:102CC000C2F200034FF001021A7040F28C03C2F20C
:102CD00000034FF000021A704FF00600FDF78AFB68
:102CE0004FF00700FDF786FBFFF760FB4FF4FA702B
:102CF000FDF79EFB4FF00600FDF760FB4FF007006D
:102D0000FDF75CFB40F2BC03C2F200031B78012B11
:102D100040F0058140F2C803C2F200031B68184668
:102D20000AF0CAFE04460D4640F29403C2F20003C4
:102D30001B6818460AF0C0FE02460B4610461946AC
:102D4000BDA3D3E900230AF00BFF02460B46204641
:102D500029460BF02FF802460B46104619460BF099
:102D600099F9024640F28403C2F200031A6040F26D
:102D70008403C2F200031B6818464FF00001C4F23E
:102D800070210BF099FB034618460BF0CDFC024670
:102D900040F2B803C2F200031A6040F28403C2F2A8
:102DA00000031C6840F2B803C2F200031A6813461D
:102DB0004FEA03139B1A4FEA830318460BF070FA8D
:102DC0000346204619460BF0B9F9034618460BF0A6
:102DD000ABFC024640F23C03C2F200031A6040F230
:102DE000B803C2F200031B6818460AF043FE04460B
:102DF0000D4640F23C03C2F200031B6818460AF07D
:102E000039FE02460B46104619468DA3D3E900232E
:102E10000AF0A6FE02460B46204629460AF0EEFCC2
:102E200002460B46104619460BF034F9024640F2B2
:102E30008403C2F200031A6040F2C803C2F2000326
:102E40001B6818460AF038FE04460D4640F294030B
:102E5000C2F200031B6818460AF02EFE02460B461B
:102E60001046194674A3D3E900230AF079FE0246FE
:102E70000B46204629460AF0BFFC02460B46104688
:102E800019460BF007F9024640F2C803C2F20003EC
:102E90001A6040F2C803C2F200031B6818460AF029
:102EA0000BFE02460B461046194665A3D3E90023E4
:102EB0000BF0C8F80346002B31D040F28E03C2F26B
:102EC00000034FF000021A7040F2C803C2F2000380
:102ED0004FF000021A6040F20003C2F200034FF00C
:102EE00001021A7040F2BC03C2F200034FF000026C
:102EF0001A704FF00600FDF77DFA4FF00700FDF75E
:102F000079FAFFF753FA4FF4FA70FDF791FA4FF0A0
:102F10000600FDF753FA4FF00700FDF74FFA40F2B5
:102F2000C603C2F200031B78012B40F0118140F26E
:102F3000C803C2F200031B6818460AF0BDFD044630
:102F40000D4640F27C03C2F200031B6818460AF0EB
:102F5000B3FD02460B461046194637A3D3E90023BA
:102F60000AF0FEFD02460B46204629460AF022FFE3
:102F700002460B46104619460BF08CF8024640F20A
:102F80008403C2F200031A6040F28403C2F2000319
:102F90001B6818464FF00001C4F270210BF08CFA48
:102FA000034618460BF0C0FB024640F2B803C2F2DB
:102FB00000031A6040F28403C2F200031C6840F26E
:102FC000B803C2F200031A6813464FEA03139B1AB0
:102FD0004FEA830318460BF063F90346204619466F
:102FE0000BF0ACF8034618460BF09EFB024640F28D
:102FF0003C03C2F200031A6040F2B803C2F20003BD
:103000001B6818460AF036FD04460D4640F23C03A4
:10301000C2F200031B6818460AF02CFD02460B465C
:103020001046194606A3D3E900230AF099FD02468B
:103030000AE000BFAFF30080D26F5F07CE19913F67
:103040007B14AE47E17A843F0B46204629460AF0BE
:10305000D5FB02460B46104619460BF01BF80246FC
:1030600040F28403C2F200031A6040F2C803C2F2C5
:1030700000031B6818460AF01FFD04460D4640F287
:103080007C03C2F200031B6818460AF015FD0246D5
:103090000B4610461946B6A3D3E900230AF060FD9B
:1030A00002460B46204629460AF0A6FB02460B467E
:1030B000104619460AF0EEFF024640F2C803C2F27B
:1030C00000031A6040F2C803C2F200031B681846EE
:1030D0000AF0F2FC02460B4610461946A6A3D3E9B5
:1030E00000230AF0AFFF0346002B31D040F28E03DD
:1030F000C2F200034FF000021A7040F2C803C2F29D
:1031000000034FF000021A6040F20003C2F2000315
:103110004FF001021A7040F2C603C2F200034FF0F2
:1031200000021A704FF00600FDF764F94FF0070037
:10313000FDF760F9FFF73AF94FF4FA70FDF778F907
:103140004FF00600FDF73AF94FF00700FDF736F9AA
:1031500040F23703C2F200031B78012B40F07D8759
:1031600040F2C803C2F200031B6818460AF0A4FC30
:1031700004460D4640F29803C2F200031B6818464D
:103180000AF09AFC02460B461046194678A3D3E98A
:1031900000230AF0E5FC02460B46204629460AF0C9
:1031A00009FE02460B46104619460AF073FF024616
:1031B00040F28403C2F200031A6040F28403C2F2B8
:1031C00000031B6818464FF00001C4F270210BF099
:1031D00073F9034618460BF0A7FA024640F2B8030B
:1031E000C2F200031A6040F28403C2F200031C68BA
:1031F00040F2B803C2F200031A6813464FEA031301
:103200009B1A4FEA830318460BF04AF80346204600
:1032100019460AF093FF034618460BF085FA02465A
:1032200040F23C03C2F200031A6040F2B803C2F25B
:1032300000031B6818460AF01DFC04460D4640F2C8
:103240003C03C2F200031B6818460AF013FC024656
:103250000B461046194648A3D3E900230AF080FC28
:1032600002460B46204629460AF0C8FA02460B469B
:10327000104619460AF00EFF024640F28403C2F2DD
:1032800000031A6040F2C803C2F200031B6818462C
:103290000AF012FC04460D4640F29803C2F2000305
:1032A0001B6818460AF008FC02460B4610461946F1
:1032B0002FA3D3E900230AF053FC02460B46204615
:1032C00029460AF099FA02460B46104619460AF0BA
:1032D000E1FE024640F2C803C2F200031A6040F267
:1032E000C803C2F200031B6818460AF0E5FB024659
:1032F0000B461046194620A3D3E900230AF0A2FE8C
:103300000346002B00F0A98640F28E03C2F20003B0
:103310004FF000021A7040F2C803C2F200034FF0EF
:1033200000021A6040F20003C2F200034FF00102F3
:103330001A7040F23703C2F200034FF000021A7015
:103340004FF00600FDF756F84FF00700FDF752F872
:10335000FFF72CF84FF4FA70FDF76AF84FF006000B
:10336000FDF72CF84FF00700FDF728F800F075BEC8
:10337000D26F5F07CE19913F7B14AE47E17A843F4D
:1033800040F2CD03C2F200031B78012B40F005810F
:1033900040F2C803C2F200031B6818460AF08CFB17
:1033A00004460D4640F29003C2F200031B68184623
:1033B0000AF082FB02460B4610461946BCA3D3E92D
:1033C00000230AF0CDFB02460B46204629460AF0B0
:1033D000F1FC02460B46104619460AF05BFE024617
:1033E00040F28403C2F200031A6040F28403C2F286
:1033F00000031B6818464FF00001C4F270210BF067
:103400005BF8034618460BF08FF9024640F2B8030A
:10341000C2F200031A6040F28403C2F200031C6887
:1034200040F2B803C2F200031A6813464FEA0313CE
:103430009B1A4FEA830318460AF032FF03462046E0
:1034400019460AF07BFE034618460BF06DF902465A
:1034500040F23C03C2F200031A6040F2B803C2F229
:1034600000031B6818460AF005FB04460D4640F2AF
:103470003C03C2F200031B6818460AF0FBFA02463E
:103480000B46104619468CA3D3E900230AF068FBCB
:1034900002460B46204629460AF0B0F902460B4682
:1034A000104619460AF0F6FD024640F28403C2F2C5
:1034B00000031A6040F2C803C2F200031B681846FA
:1034C0000AF0FAFA04460D4640F29003C2F20003F5
:1034D0001B6818460AF0F0FA02460B4610461946D9
:1034E00073A3D3E900230AF03BFB02460B462046B8
:1034F00029460AF081F902460B46104619460AF0A1
:10350000C9FD024640F2C803C2F200031A6040F24D
:10351000C803C2F200031B6818460AF0CDFA02463F
:103520000B461046194664A3D3E900230AF08AFD2E
:103530000346002B31D040F28E03C2F200034FF05D
:1035400000021A7040F2C803C2F200034FF00002FA
:103550001A6040F20003C2F200034FF001021A7039
:1035600040F2CD03C2F200034FF000021A704FF098
:103570000600FCF73FFF4FF00700FCF73BFFFEF7AC
:1035800015FF4FF4FA70FCF753FF4FF00600FCF7FD
:1035900015FF4FF00700FCF711FF40F26503C2F280
:1035A00000031B78012B40F00F8140F2C803C2F2E8
:1035B00000031B6818460AF07FFA04460D4640F2E5
:1035C000C003C2F200031B6818460AF075FA0246EF
:1035D0000B461046194636A3D3E900230AF0C0FA79
:1035E00002460B46204629460AF0E4FB02460B46FB
:1035F000104619460AF04EFD024640F28403C2F21C
:1036000000031A6040F28403C2F200031B681846EC
:103610004FF00001C4F270210AF04EFF0346184635
:103620000BF082F8024640F2B803C2F200031A60BF
:1036300040F28403C2F200031C6840F2B803C2F2F5
:1036400000031A6813464FEA03139B1A4FEA8303D9
:1036500018460AF025FE0346204619460AF06EFD7C
:10366000034618460BF060F8024640F23C03C2F2F3
:1036700000031A6040F2B803C2F200031B68184648
:103680000AF0F8F904460D4640F23C03C2F200038A
:103690001B6818460AF0EEF902460B46104619461A
:1036A00005A3D3E900230AF05BFA024608E000BF55
:1036B000EAB298D87C5C5B3F7B14AE47E17A843FEA
:1036C0000B46204629460AF099F802460B4610465A
:1036D00019460AF0DFFC024640F28403C2F20003FE
:1036E0001A6040F2C803C2F200031B6818460AF0D1
:1036F000E3F904460D4640F2C003C2F200031B6822
:1037000018460AF0D9F902460B46104619469CA302
:10371000D3E900230AF024FA02460B462046294644
:103720000AF06AF802460B46104619460AF0B2FC47
:10373000024640F2C803C2F200031A6040F2C80316
:10374000C2F200031B6818460AF0B6F902460B469F
:10375000104619468CA3D3E900230AF073FC0346F4
:10376000002B31D040F28E03C2F200034FF0000272
:103770001A7040F2C803C2F200034FF000021A6050
:1037800040F20003C2F200034FF001021A7040F24F
:103790006503C2F200034FF000021A704FF00600FA
:1037A000FCF728FE4FF00700FCF724FEFEF7FEFDB5
:1037B0004FF4FA70FCF73CFE4FF00600FCF7FEFDFC
:1037C0004FF00700FCF7FAFD40F28C03C2F2000351
:1037D0001B78012B40F00E8140F2C803C2F20003B7
:1037E0001B6818460AF068F904460D4640F2780353
:1037F000C2F200031B6818460AF05EF902460B4647
:10380000104619465EA3D3E900230AF0A9F902463F
:103810000B46204629460AF0CDFA02460B461046D2
:1038200019460AF037FC024640F28403C2F2000354
:103830001A6040F28403C2F200031B6818464FF07E
:103840000001C4F270210AF037FE034618460AF060
:103850006BFF024640F2B803C2F200031A6040F266
:103860008403C2F200031C6840F2B803C2F20003F2
:103870001A6813464FEA03139B1A4FEA830318464C
:103880000AF00EFD0346204619460AF057FC03468F
:1038900018460AF049FF024640F23C03C2F2000318
:1038A0001A6040F2B803C2F200031B6818460AF01F
:1038B000E1F804460D4640F23C03C2F200031B68E7
:1038C00018460AF0D7F802460B46104619462EA3B2
:1038D000D3E900230AF044F902460B462046294664
:1038E00009F08CFF02460B46104619460AF0D2FB3F
:1038F000024640F28403C2F200031A6040F2C80399
:10390000C2F200031B6818460AF0D6F804460D46BA
:1039100040F27803C2F200031B6818460AF0CCF8A4
:1039200002460B461046194615A3D3E900230AF0B8
:1039300017F902460B462046294609F05DFF02466C
:103940000B46104619460AF0A5FB024640F2C80392
:10395000C2F200031A6040F2C803C2F200031B68FF
:1039600018460AF0A9F802460B461046194606A367
:10397000D3E900230AF066FB0346002B3AD007E0A8
:10398000EAB298D87C5C5B3F7B14AE47E17A843F17
:1039900040F28E03C2F200034FF000021A7040F2B0
:1039A000C803C2F200034FF000021A6040F20003A5
:1039B000C2F200034FF001021A7040F28C03C2F20F
:1039C00000034FF000021A704FF00600FCF712FDE2
:1039D0004FF00700FCF70EFDFEF7E8FC4FF4FA701D
:1039E000FCF726FD4FF00600FCF7E8FC4FF007005F
:1039F000FCF7E4FC40F2BC03C2F200031B78012B8D
:103A000040F0058140F2C803C2F200031B6818466B
:103A10000AF052F804460D4640F29403C2F2000345
:103A20001B6818460AF048F802460B46104619462D
:103A3000BDA3D3E900230AF093F802460B462046C3
:103A400029460AF0B7F902460B46104619460AF015
:103A500021FB024640F28403C2F200031A6040F2E6
:103A60008403C2F200031B6818464FF00001C4F241
:103A700070210AF021FD034618460AF055FE024661
:103A800040F2B803C2F200031A6040F28403C2F2AB
:103A900000031C6840F2B803C2F200031A68134620
:103AA0004FEA03139B1A4FEA830318460AF0F8FB08
:103AB0000346204619460AF041FB034618460AF021
:103AC00033FE024640F23C03C2F200031A6040F2A9
:103AD000B803C2F200031B68184609F0CBFF044686
:103AE0000D4640F23C03C2F200031B68184609F081
:103AF000C1FF02460B46104619468DA3D3E90023A9
:103B00000AF02EF802460B462046294609F076FEBA
:103B100002460B46104619460AF0BCFA024640F22D
:103B20008403C2F200031A6040F2C803C2F2000329
:103B30001B68184609F0C0FF04460D4640F2940386
:103B4000C2F200031B68184609F0B6FF02460B4696
:103B50001046194674A3D3E900230AF001F802467F
:103B60000B462046294609F047FE02460B46104602
:103B700019460AF08FFA024640F2C803C2F2000367
:103B80001A6040F2C803C2F200031B68184609F02D
:103B900093FF02460B461046194665A3D3E900235E
:103BA0000AF050FA0346002B31D040F28E03C2F2E5
:103BB00000034FF000021A7040F2C803C2F2000383
:103BC0004FF000021A6040F20003C2F200034FF00F
:103BD00001021A7040F2BC03C2F200034FF000026F
:103BE0001A704FF00600FCF705FC4FF00700FCF7D9
:103BF00001FCFEF7DBFB4FF4FA70FCF719FC4FF009
:103C00000600FCF7DBFB4FF00700FCF7D7FB40F2A8
:103C1000C603C2F200031B78012B40F0118140F271
:103C2000C803C2F200031B68184609F045FF0446AA
:103C30000D4640F27C03C2F200031B68184609F0EF
:103C40003BFF02460B461046194637A3D3E9002333
:103C500009F086FF02460B46204629460AF0AAF8DC
:103C600002460B46104619460AF014FA024640F284
:103C70008403C2F200031A6040F28403C2F200031C
:103C80001B6818464FF00001C4F270210AF014FCC2
:103C9000034618460AF048FD024640F2B803C2F255
:103CA00000031A6040F28403C2F200031C6840F271
:103CB000B803C2F200031A6813464FEA03139B1AB3
:103CC0004FEA830318460AF0EBFA034620461946EA
:103CD0000AF034FA034618460AF026FD024640F27E
:103CE0003C03C2F200031A6040F2B803C2F20003C0
:103CF0001B68184609F0BEFE04460D4640F23C0320
:103D0000C2F200031B68184609F0B4FE02460B46D7
:103D10001046194606A3D3E9002309F021FF024605
:103D20000AE000BFAFF30080EAB298D87C5C5B3F4A
:103D30007B14AE47E17A843F0B462046294609F0C2
:103D40005DFD02460B46104619460AF0A3F90246ED
:103D500040F28403C2F200031A6040F2C803C2F2C8
:103D600000031B68184609F0A7FE04460D4640F202
:103D70007C03C2F200031B68184609F09DFE024650
:103D80000B4610461946C0A3D3E9002309F0E8FE0C
:103D900002460B462046294609F02EFD02460B46F8
:103DA000104619460AF076F9024640F2C803C2F2FC
:103DB00000031A6040F2C803C2F200031B681846F1
:103DC00009F07AFE02460B4610461946B0A3D3E925
:103DD00000230AF037F90346002B31D040F28E035E
:103DE000C2F200034FF000021A7040F2C803C2F2A0
:103DF00000034FF000021A6040F20003C2F2000319
:103E00004FF001021A7040F2C603C2F200034FF0F5
:103E100000021A704FF00600FCF7ECFA4FF00700B2
:103E2000FCF7E8FAFEF7C2FA4FF4FA70FCF700FB71
:103E30004FF00600FCF7C2FA4FF00700FCF7BEFA9D
:103E400040F23703C2F200031B78012B40F00581DA
:103E500040F2C803C2F200031B68184609F02CFEAA
:103E600004460D4640F29803C2F200031B68184650
:103E700009F022FE02460B461046194682A3D3E9FA
:103E8000002309F06DFE02460B462046294609F044
:103E900091FF02460B46104619460AF0FBF802460F
:103EA00040F28403C2F200031A6040F28403C2F2BB
:103EB00000031B6818464FF00001C4F270210AF09D
:103EC000FBFA034618460AF02FFC024640F2B803FC
:103ED000C2F200031A6040F28403C2F200031C68BD
:103EE00040F2B803C2F200031A6813464FEA031304
:103EF0009B1A4FEA830318460AF0D2F9034620467C
:103F000019460AF01BF9034618460AF00DFC024652
:103F100040F23C03C2F200031A6040F2B803C2F25E
:103F200000031B68184609F0A5FD04460D4640F243
:103F30003C03C2F200031B68184609F09BFD0246D1
:103F40000B461046194652A3D3E9002309F008FE98
:103F500002460B462046294609F050FC02460B4615
:103F6000104619460AF096F8024640F28403C2F25F
:103F700000031A6040F2C803C2F200031B6818462F
:103F800009F09AFD04460D4640F29803C2F2000380
:103F90001B68184609F090FD02460B46104619466C
:103FA00039A3D3E9002309F0DBFD02460B46204686
:103FB000294609F021FC02460B46104619460AF034
:103FC00069F8024640F2C803C2F200031A6040F2E8
:103FD000C803C2F200031B68184609F06DFD0246D3
:103FE0000B46104619462AA3D3E900230AF02AF803
:103FF0000346002B31D040F28E03C2F200034FF093
:1040000000021A7040F2C803C2F200034FF000022F
:104010001A6040F20003C2F200034FF001021A706E
:1040200040F23703C2F200034FF000021A704FF063
:104030000600FCF7DFF94FF00700FCF7DBF9FEF7AD
:10404000B5F94FF4FA70FCF7F3F94FF00600FCF7FE
:10405000B5F94FF00700FCF7B1F940F2CD03C2F219
:1040600000031B78012B40F0AE8040F29D03C2F2AA
:1040700000031B7803F00103002B0DD04FF061000B
:10408000FEF78CF80CE000BFEAB298D87C5C5B3F8E
:104090007B14AE47E17A843F4FF03000FEF77EF8A4
:1040A0004FF00A00FCF71AFA40F29D03C2F2000337
:1040B0001B7803F00203002B04D04FF06200FEF7E0
:1040C0006DF803E04FF03100FEF768F84FF00A009A
:1040D000FCF704FA40F29D03C2F200031B7803F0E0
:1040E0000403002B04D04FF06300FEF757F803E001
:1040F0004FF03200FEF752F84FF00A00FCF7EEF9ED
:1041000040F29D03C2F200031B7803F00803002B6A
:1041100004D04FF06400FEF741F803E04FF03300A5
:10412000FEF73CF84FF00A00FCF7D8F940F29D0387
:10413000C2F200031B7803F01003002B04D04FF0F1
:104140006500FEF72BF803E04FF03400FEF726F889
:104150004FF00A00FCF7C2F940F29D03C2F20003DF
:104160001B7803F02003002B04D04FF06600FEF70D
:1041700015F803E04FF03500FEF710F84FF00A0095
:10418000FCF7ACF940F29D03C2F200031B7803F088
:104190004003002B04D04FF06700FDF7FFFF03E062
:1041A0004FF03600FDF7FAFF4FF00A00FCF796F9E2
:1041B00040F2B403C2F200031B78A3F16A03DBB23E
:1041C0001846FDF7EBFF40F26503C2F200031B78CF
:1041D000012B40F0A58040F26703C2F200031B7878
:1041E00003F00103002B04D04FF06100FDF7D6FF70
:1041F00003E04FF03000FDF7D1FF4FF00A00FCF76D
:104200006DF940F26703C2F200031B7803F002036A
:10421000002B04D04FF06200FDF7C0FF03E04FF029
:104220003100FDF7BBFF4FF00A00FCF757F940F2F1
:104230006703C2F200031B7803F00403002B04D0D1
:104240004FF06300FDF7AAFF03E04FF03200FDF7E7
:10425000A5FF4FF00A00FCF741F940F26703C2F2F4
:1042600000031B7803F00803002B04D04FF0640018
:10427000FDF794FF03E04FF03300FDF78FFF4FF0A1
:104280000A00FCF72BF940F26703C2F200031B7827
:1042900003F01003002B04D04FF06500FDF77EFF04
:1042A00003E04FF03400FDF779FF4FF00A00FCF710
:1042B00015F940F26703C2F200031B7803F02003F4
:1042C000002B04D04FF06600FDF768FF03E04FF0CD
:1042D0003500FDF763FF4FF00A00FCF7FFF840F2EE
:1042E0006703C2F200031B7803F04003002B04D0E5
:1042F0004FF06700FDF752FF03E04FF03600FDF787
:104300004DFF4FF00A00FCF7E9F840F2BD03C2F29E
:1043100000031B78A3F16A03DBB21846FDF73EFFEA
:1043200040F28C03C2F200031B78012B40F0A58001
:1043300040F29C03C2F200031B7803F00103002B40
:1043400004D04FF06100FDF729FF03E04FF030008B
:10435000FDF724FF4FF00A00FCF7C0F840F29C0381
:10436000C2F200031B7803F00203002B04D04FF0CD
:104370006200FDF713FF03E04FF03100FDF70EFF81
:104380004FF00A00FCF7AAF840F29C03C2F20003C7
:104390001B7803F00403002B04D04FF06300FDF7FB
:1043A000FDFE03E04FF03200FDF7F8FE4FF00A008B
:1043B000FCF794F840F29C03C2F200031B7803F070
:1043C0000803002B04D04FF06400FDF7E7FE03E084
:1043D0004FF03300FDF7E2FE4FF00A00FCF77EF8E5
:1043E00040F29C03C2F200031B7803F01003002B81
:1043F00004D04FF06500FDF7D1FE03E04FF034002C
:10440000FDF7CCFE4FF00A00FCF768F840F29C0381
:10441000C2F200031B7803F02003002B04D04FF0FE
:104420006600FDF7BBFE03E04FF03500FDF7B6FE7A
:104430004FF00A00FCF752F840F29C03C2F200036E
:104440001B7803F04003002B04D04FF06700FDF70A
:10445000A5FE03E04FF03600FDF7A0FE4FF00A0086
:10446000FCF73CF840F2C403C2F200031B78A3F14E
:104470006A03DBB21846FDF791FE40F2BC03C2F2BC
:1044800000031B78012B40F0A58040F28203C2F2AA
:1044900000031B7803F00103002B04D04FF06100F0
:1044A000FDF77CFE03E04FF03000FDF777FE4FF0A4
:1044B0000A00FCF713F840F28203C2F200031B78F3
:1044C00003F00203002B04D04FF06200FDF766FEFC
:1044D00003E04FF03100FDF761FE4FF00A00FBF7FB
:1044E000FDFF40F28203C2F200031B7803F00403D5
:1044F000002B04D04FF06300FDF750FE03E04FF0B7
:104500003200FDF74BFE4FF00A00FBF7E7FF40F2E9
:104510008203C2F200031B7803F00803002B04D0CF
:104520004FF06400FDF73AFE03E04FF03300FDF773
:1045300035FE4FF00A00FBF7D1FF40F28203C2F2D2
:1045400000031B7803F01003002B04D04FF065002C
:10455000FDF724FE03E04FF03400FDF71FFE4FF09F
:104560000A00FBF7BBFF40F28203C2F200031B7894
:1045700003F02003002B04D04FF06600FDF70EFE81
:1045800003E04FF03500FDF709FE4FF00A00FBF79E
:10459000A5FF40F28203C2F200031B7803F0400340
:1045A000002B04D04FF06700FDF7F8FD03E04FF05B
:1045B0003600FDF7F3FD4FF00A00FBF78FFF40F2E6
:1045C0006603C2F200031B78A3F16A03DBB218464C
:1045D000FDF7E4FD40F2C603C2F200031B78012B95
:1045E00040F0A58040F29E03C2F200031B7803F066
:1045F0000103002B04D04FF06100FDF7CFFD03E075
:104600004FF03000FDF7CAFD4FF00A00FBF766FFE0
:1046100040F29E03C2F200031B7803F00203002B5A
:1046200004D04FF06200FDF7B9FD03E04FF0310018
:10463000FDF7B4FD4FF00A00FBF750FF40F29E0378
:10464000C2F200031B7803F00403002B04D04FF0E8
:104650006300FDF7A3FD03E04FF03200FDF79EFD80
:104660004FF00A00FBF73AFF40F29E03C2F200034C
:104670001B7803F00803002B04D04FF06400FDF713
:104680008DFD03E04FF03300FDF788FD4FF00A0089
:10469000FBF724FF40F29E03C2F200031B7803F0F5
:1046A0001003002B04D04FF06500FDF777FD03E009
:1046B0004FF03400FDF772FD4FF00A00FBF70EFFDC
:1046C00040F29E03C2F200031B7803F02003002B8C
:1046D00004D04FF06600FDF761FD03E04FF03500B8
:1046E000FDF75CFD4FF00A00FBF7F8FE40F29E0379
:1046F000C2F200031B7803F04003002B04D04FF0FC
:104700006700FDF74BFD03E04FF03600FDF746FD77
:104710004FF00A00FBF7E2FE40F27003C2F2000322
:104720001B78A3F16A03DBB21846FDF737FD40F2B0
:104730003703C2F200031B78012B40F0238140F2C3
:10474000CE03C2F200031B7803F00103002B04D058
:104750004FF06100FDF722FD03E04FF03000FDF760
:104760001DFD4FF00A00FBF7B9FE40F2CE03C2F286
:1047700000031B7803F00203002B04D04FF062000B
:10478000FDF70CFD03E04FF03100FDF707FD4FF0A2
:104790000A00FBF7A3FE40F2CE03C2F200031B782F
:1047A00003F00403002B04D04FF06300FDF7F6FC88
:1047B00003E04FF03200FDF7F1FC4FF00A00FBF789
:1047C0008DFE40F2CE03C2F200031B7803F0080313
:1047D000002B04D04FF06400FDF7E0FC03E04FF045
:1047E0003300FDF7DBFC4FF00A00FBF777FE40F2E9
:1047F000CE03C2F200031B7803F01003002B04D099
:104800004FF06500FDF7CAFC03E04FF03400FDF700
:10481000C5FC4FF00A00FBF761FE40F2CE03C2F286
:1048200000031B7803F02003002B04D04FF0660038
:10483000FDF7B4FC03E04FF03500FDF7AFFC4FF09F
:104840000A00FBF74BFE40F2CE03C2F200031B78D6
:1048500003F04003002B04D04FF06700FDF79EFCEF
:1048600003E04FF03600FDF799FC4FF00A00FBF72C
:1048700035FE40F2BE03C2F200031B78A3F16A03C7
:10488000DBB21846FDF78AFC7CE04FF00000FDF734
:104890003FFA40F28E03C2F200034FF000021A709A
:1048A00040F28803C2F200031B68002B0CD040F2D8
:1048B0008803C2F200031B6803F1FF3240F2880351
:1048C000C2F200031A602CE040F2C803C2F20003F7
:1048D0001B68184609F0F0F804460D4640F29003B4
:1048E000C2F200031B68184609F0E6F802460B46C0
:1048F000104619465EA3D3E9002309F031F90246B8
:104900000B462046294608F077FF02460B46104624
:10491000194609F0BFFB024640F2C803C2F2000389
:104920001A6040F2C803C2F200031B68184609F07F
:10493000C3F802460B46104619464FA3D3E900239D
:1049400009F080FB0346002B1CD040F2C803C2F2E2
:1049500000034FF000021A604FF00600FBF74AFD1B
:104960004FF00700FBF746FDFDF720FD4FF4FA700E
:10497000FBF75EFD4FF00600FBF720FD4FF0070050
:10498000FBF71CFD40F2C803C2F200031B68184687
:104990004FF0000109F070FE0346002B28D040F2D2
:1049A0008803C2F200031B68002B0DD140F26C0398
:1049B000C2F200031B68184609F0B6FE024640F238
:1049C0008803C2F200031A60FDF7F0FC4FF0960076
:1049D000FDF7E4FB40F23403C2F200034FF00002A3
:1049E0001A7040F23503C2F200034FF000021A7051
:1049F00040F2C803C2F200031B6818464FF00001E2
:104A000009F03AFE0346002B28D040F28803C2F298
:104A100000031B68002B0DD140F26C03C2F20003AF
:104A20001B68184609F080FE024640F28803C2F275
:104A300000031A60FDF7BAFC4FF09600FDF7AEFBDD
:104A400040F23403C2F200034FF000021A7040F249
:104A50003503C2F200034FF000021A7040F2030364
:104A6000C2F200034FF001021A70B0BDAFF3008034
:104A70009CC420B07268913F9A9999999999B93FCD
:104A800080B500AF4FF40063C4F200034FF400623E
:104A9000C4F20002128A92B222F0010292B21A8289
:104AA00040F2BF03C2F200031B7803F10103DAB244
:104AB00040F2BF03C2F200031A7040F2BF03C2F219
:104AC00000031B780C2B06D140F2BF03C2F2000397
:104AD0004FF000021A7040F2BF03C2F200031B78CD
:104AE0000B2B00F2AB8001A252F823F01D4B000803
:104AF000354B00084D4B0008654B00087D4B000806
:104B0000954B0008AD4B0008C54B0008DD4B000875
:104B1000F54B00080D4C0008254C00084FF0000034
:104B2000FDF7F6F84FF44053C4F200034AF6AA2208
:104B30001A6083E04FF00100FDF7EAF84FF44053AC
:104B4000C4F200034AF6AA221A6077E04FF002008E
:104B5000FDF7DEF84FF44053C4F200034AF6AA22F0
:104B60001A606BE04FF00300FDF7D2F84FF44053AA
:104B7000C4F200034AF6AA221A605FE04FF0040074
:104B8000FDF7C6F84FF44053C4F200034AF6AA22D8
:104B90001A6053E04FF00500FDF7BAF84FF44053A8
:104BA000C4F200034AF6AA221A6047E04FF006005A
:104BB000FDF7AEF84FF44053C4F200034AF6AA22C0
:104BC0001A603BE04FF00500FDF7A2F84FF44053A8
:104BD000C4F200034AF6AA221A602FE04FF0040044
:104BE000FDF796F84FF44053C4F200034AF6AA22A8
:104BF0001A6023E04FF00300FDF78AF84FF44053AA
:104C0000C4F200034AF6AA221A6017E04FF002002D
:104C1000FDF77EF84FF44053C4F200034AF6AA228F
:104C20001A600BE04FF00100FDF772F84FF44053AB
:104C3000C4F200034AF6AA221A6000BF40F2C5037C
:104C4000C2F200034FF000021A7080BD00000000A5
:104C5000B0B500AFFBF798FCFCF7E2FB4FF4006344
:104C6000C4F201034FF000621A614FF46040C4F2D5
:104C70000A60FBF7C1FD4FF46040C4F20A60FBF725
:104C8000BBFD40F2C803C2F200034FF000021A60FD
:104C90004FF00700FDF73CF807F05CFE07F0C4FD9D
:104CA000FCF7DAF94FF00000FCF736FB0346184634
:104CB00009F0F6FA024640F2A803C2F200031A60B5
:104CC0004FF00A00FBF7B4FB4FF00400FCF724FBA5
:104CD0000346184609F0E4FA024640F2A003C2F285
:104CE00000031A604FF00A00FBF7A2FB4FF0080028
:104CF000FCF76EFB024640F29003C2F200031A601A
:104D00004FF00A00FBF794FB4FF00C00FCF760FB40
:104D1000024640F2C003C2F200031A604FF00A00DC
:104D2000FBF786FB4FF01000FCF752FB024640F207
:104D30007803C2F200031A604FF00A00FBF778FB19
:104D40004FF01400FCF744FB024640F29403C2F219
:104D500000031A604FF00A00FBF76AFB4FF01800DF
:104D6000FCF736FB024640F27C03C2F200031A60F5
:104D70004FF00A00FBF75CFB4FF01C00FCF728FB30
:104D8000024640F29803C2F200031A604FF00A0094
:104D9000FBF74EFB4FF02000FCF71AFB024640F2F7
:104DA0004003C2F200031A604FF00A00FBF740FB19
:104DB0004FF02400FCF70CFB024640F26803C2F2FD
:104DC00000031A604FF00A00FBF732FB4FF0280097
:104DD000FCF7A2FA0346184609F062FA024640F2CE
:104DE0006C03C2F200031A604FF00A00FBF720FBCD
:104DF0004FF02C00FCF790FA024640F2B003C2F2EA
:104E000000031A604FF00A00FBF712FB40F2B003F8
:104E1000C2F200031A6844F2A003C0F2DD039A4212
:104E200010D94FF048004FF00001FCF73FFA4FF067
:104E30000500FBF7FDFA40F2B003C2F200034FF0A9
:104E400000021A604FF06400FCF7DAF903461A46D4
:104E500040F29D03C2F200031A704FF00500FBF709
:104E6000E7FA4FF06500FCF7CBF903461A4640F22B
:104E70006703C2F200031A704FF00500FBF7D8FA7F
:104E80004FF06600FCF7BCF903461A4640F29C035B
:104E9000C2F200031A704FF00500FBF7C9FA4FF099
:104EA0006700FCF7ADF903461A4640F28203C2F2EE
:104EB00000031A704FF00500FBF7BAFA4FF06800D4
:104EC000FCF79EF903461A4640F29E03C2F2000325
:104ED0001A704FF00500FBF7ABFA4FF06900FCF7D2
:104EE0008FF903461A4640F2CE03C2F200031A704D
:104EF0004FF00500FBF79CFA4FF06A00FCF780F9D1
:104F000003461A4640F2B403C2F200031A704FF08F
:104F10000500FBF78DFA4FF06B00FCF771F90346C3
:104F20001A4640F2BD03C2F200031A704FF00500AA
:104F3000FBF77EFA4FF06C00FCF762F903461A4665
:104F400040F2C403C2F200031A704FF00500FBF7F1
:104F50006FFA4FF06D00FCF753F903461A4640F222
:104F60006603C2F200031A704FF00500FBF760FA07
:104F70004FF06E00FCF744F903461A4640F2700306
:104F8000C2F200031A704FF00500FBF751FA4FF020
:104F90006F00FCF735F903461A4640F2BE03C2F231
:104FA00000031A704FF00500FBF742FA4FF440532C
:104FB000C4F2000345F255521A604FF44053C4F254
:104FC00000034FF003025A604FF44053C4F2000351
:104FD00045F255521A604FF44053C4F200034AF6AA
:104FE000AA221A604FF44053C4F200034CF6CC429C
:104FF0001A604FF44053C4F200034AF6AA221A6022
:105000004FF001004FF0010107F072FC40F2440242
:10501000C2F200024EF61803C0F6000393E8030044
:1050200082E8030040F24400C2F2000007F02AFCCC
:105030004FF4C870FBF7FCF94FF44053C4F200037F
:105040004AF6AA221A604FF001004FF0080107F05B
:105050004FFC40F24403C2F200034FF02E021A80CC
:1050600040F24400C2F2000007F00CFC4FF00000D8
:10507000FCF74EFE4FF4C870FBF7DAF94FF44053DB
:10508000C4F200034AF6AA221A604FF001004FF062
:10509000090107F02DFC40F24403C2F200034FF077
:1050A0002E021A8040F24400C2F2000007F0EAFB30
:1050B0004FF00100FCF72CFE4FF4C870FBF7B8F975
:1050C0004FF44053C4F200034AF6AA221A604FF08C
:1050D00001004FF00A0107F00BFC40F24403C2F25A
:1050E00000034FF02E021A8040F24400C2F200008A
:1050F00007F0C8FB4FF00200FCF70AFE4FF4C8703F
:10510000FBF796F94FF44053C4F200034AF6AA2283
:105110001A604FF001004FF00B0107F0E9FB40F27D
:105120004403C2F200034FF02E021A8040F2440002
:10513000C2F2000007F0A6FB4FF00300FCF7E8FD09
:105140004FF4C870FBF774F94FF44053C4F20003F6
:105150004AF6AA221A604FF001004FF00C0107F046
:10516000C7FB40F24403C2F200034FF02E021A8044
:1051700040F24400C2F2000007F084FB4FF004004C
:10518000FCF7C6FD4FF4C870FBF752F94FF44053DB
:10519000C4F200034AF6AA221A604FF001004FF051
:1051A0000D0107F0A5FB40F24403C2F200034FF0EB
:1051B0002E021A8040F24400C2F2000007F062FBA7
:1051C0004FF00500FCF7A4FD4FF4C870FBF730F971
:1051D0004FF44053C4F200034AF6AA221A604FF07B
:1051E00001004FF00E0107F083FB40F24403C2F2CE
:1051F00000034FF02E021A8040F24400C2F2000079
:1052000007F040FB4FF00600FCF782FD4FF47A7088
:10521000FBF70EF94FF00000FBF7EEFA4FF000003D
:10522000FCF776FD4FF44053C4F200034AF6AA227D
:105230001A6007F0F9FA4FF000004FF0010107F093
:1052400057FB40F24403C2F200034EF62002C0F6C0
:10525000000207CA03C31A8003F102034FEA124295
:105260001A7040F24400C2F2000007F00BFB4FF44A
:105270000063C4F201034FF400621A614FF00500AD
:10528000FBF7D6F84FF40063C4F201034FF000625D
:105290001A614FF44053C4F200034AF6AA221A607E
:1052A000FDF784F84FF09600FCF778FF40F26C03AE
:1052B000C2F200031B68184609F036FA024640F2B3
:1052C0008803C2F200031A604FF00600FBF776F87D
:1052D0004FF00700FBF772F840F20003C2F2000340
:1052E0004FF001021A7000E000BF4FF44053C4F2C7
:1052F00000034AF6AA221A6040F2C803C2F2000371
:105300001B6818464FF0000109F0DEF90346002B38
:1053100001F0BF8040F28D03C2F200031B78002B26
:1053200008D140F28D03C2F200034FF001021A705F
:10533000FCF750FF4FF40063C4F201039B6803F0D5
:105340008003002B70D14FF03200FBF771F84FF45F
:105350000063C4F201039B6803F08003002B63D158
:105360004FF00600FBF746F84FF00700FBF742F856
:1053700040F23503C2F200034FF001021A704FF4FD
:105380000063C4F201034FF400621A614FF032006F
:10539000FBF74EF84FF40063C4F201034FF00062D4
:1053A0001A6140F20003C2F200034FF001021A70CA
:1053B00040F2CD03C2F200034FF000021A7040F237
:1053C0006503C2F200034FF000021A7040F28C0332
:1053D000C2F200034FF000021A7040F2BC03C2F2A6
:1053E00000034FF000021A7040F2C603C2F200033D
:1053F0004FF000021A7040F23703C2F200034FF080
:1054000000021A70FCF7D2FF4FF09600FCF7C6FEC0
:105410004FF06400FBF70CF84FF00600FAF7CEFFF0
:105420004FF00700FAF7CAFF4FF44063C4F20103DC
:105430009B6803F00103002B40F054814FF00A00F9
:10544000FAF7F6FF4FF44063C4F201039B6803F0E0
:105450000103002B40F03C8140F20003C2F2000344
:105460004FF001021A7040F2CD03C2F200034FF078
:1054700000021A7040F26503C2F200034FF000020E
:105480001A7040F28C03C2F200034FF000021A704F
:1054900040F2BC03C2F200034FF000021A7040F267
:1054A000C603C2F200034FF000021A7040F2370345
:1054B000C2F200034FF000021A7040F20003C2F281
:1054C00000031B78012B40F003814FF00600FAF730
:1054D00091FF4FF00700FAF78DFF4FF40063C4F21D
:1054E00001034FF400621A614FF03200FAF7A0FF97
:1054F0004FF40063C4F201034FF000621A6140F2FE
:105500000003C2F200034FF000021A704FF48063F0
:10551000C4F200034FF48062C4F20002128A92B215
:1055200042F0010292B21A824FF00100FCF7F0FB48
:1055300040F2CD03C2F200031B78002B40F0AC8098
:1055400040F2CD03C2F200034FF001021A7040F2A4
:105550009D03C2F200031B7803F00103002B04D06B
:105560004FF06100FCF71AFE03E04FF03000FCF74B
:1055700015FE4FF00A00FAF7B1FF40F29D03C2F2A8
:1055800000031B7803F00203002B04D04FF06200ED
:10559000FCF704FE03E04FF03100FCF7FFFD4FF095
:1055A0000A00FAF79BFF40F29D03C2F200031B784A
:1055B00003F00403002B04D04FF06300FCF7EEFD72
:1055C00003E04FF03200FCF7E9FD4FF00A00FAF774
:1055D00085FF40F29D03C2F200031B7803F008032D
:1055E000002B04D04FF06400FCF7D8FD03E04FF02F
:1055F0003300FCF7D3FD4FF00A00FAF76FFF40F2DB
:105600009D03C2F200031B7803F01003002B04D0AB
:105610004FF06500FCF7C2FD03E04FF03400FCF7EB
:10562000BDFD4FF00A00FAF759FF40F29D03C2F2A8
:1056300000031B7803F02003002B04D04FF066001A
:10564000FCF7ACFD03E04FF03500FCF7A7FD4FF091
:105650000A00FAF743FF40F29D03C2F200031B78F1
:1056600003F04003002B04D04FF06700FCF796FDD9
:1056700003E04FF03600FCF791FD4FF00A00FAF717
:105680002DFF40F2B403C2F200031B78A3F16A03BA
:10569000DBB21846FCF782FD4FF06400FAF7C8FE53
:1056A0004FF00600FAF78AFE4FF00700FAF786FE81
:1056B0000EE04FF40063C4F201034FF000621A6180
:1056C0004FF44053C4F200034AF6AA221A6000E0E5
:1056D00000BF4FF44063C4F201039B6803F0010371
:1056E000002BE6D04FF44063C4F201039B6803F043
:1056F0000203002B40F054814FF00A00FAF798FEA5
:105700004FF44063C4F201039B6803F00203002BD3
:1057100040F03C8140F20003C2F200034FF001026E
:105720001A7040F2CD03C2F200034FF000021A706B
:1057300040F26503C2F200034FF000021A7040F21B
:105740008C03C2F200034FF000021A7040F2BC0357
:10575000C2F200034FF000021A7040F2C603C2F218
:1057600000034FF000021A7040F23703C2F2000348
:105770004FF000021A7040F20003C2F200031B78DF
:10578000012B40F003814FF00600FAF733FE4FF093
:105790000700FAF72FFE4FF40063C4F201034FF441
:1057A00000621A614FF03200FAF742FE4FF40063D4
:1057B000C4F201034FF000621A6140F20003C2F22A
:1057C00000034FF000021A704FF48063C4F200032C
:1057D0004FF48062C4F20002128A92B242F00102D7
:1057E00092B21A824FF00200FCF792FA40F265037F
:1057F000C2F200031B78002B40F0AC8040F265033E
:10580000C2F200034FF001021A7040F26703C2F2C5
:1058100000031B7803F00103002B04D04FF061005C
:10582000FCF7BCFC03E04FF03000FCF7B7FC4FF096
:105830000A00FAF753FE40F26703C2F200031B7836
:1058400003F00203002B04D04FF06200FCF7A6FC2B
:1058500003E04FF03100FCF7A1FC4FF00A00FAF72B
:105860003DFE40F26703C2F200031B7803F004031D
:10587000002B04D04FF06300FCF790FC03E04FF0E6
:105880003200FCF78BFC4FF00A00FAF727FE40F2DB
:105890006703C2F200031B7803F00803002B04D057
:1058A0004FF06400FCF77AFC03E04FF03300FCF7A4
:1058B00075FC4FF00A00FAF711FE40F26703C2F2DE
:1058C00000031B7803F01003002B04D04FF0650099
:1058D000FCF764FC03E04FF03400FCF75FFC4FF092
:1058E0000A00FAF7FBFD40F26703C2F200031B78DF
:1058F00003F02003002B04D04FF06600FCF74EFCB1
:1059000003E04FF03500FCF749FC4FF00A00FAF7CE
:10591000E5FD40F26703C2F200031B7803F0400389
:10592000002B04D04FF06700FCF738FC03E04FF089
:105930003600FCF733FC4FF00A00FAF7CFFD40F2D7
:10594000BD03C2F200031B78A3F16A03DBB2184661
:10595000FCF724FC4FF06400FAF76AFD4FF00600F4
:10596000FAF72CFD4FF00700FAF728FD0EE04FF490
:105970000063C4F201034FF000621A614FF4405318
:10598000C4F200034AF6AA221A6000E000BF4FF4F6
:105990004063C4F201039B6803F00103002BE6D0CF
:1059A0004FF44063C4F201039B6803F00403002B2F
:1059B00040F054814FF00A00FAF73AFD4FF440638B
:1059C000C4F201039B6803F00403002B40F03C8108
:1059D00040F20003C2F200034FF001021A7040F2DD
:1059E000CD03C2F200034FF000021A7040F26503CB
:1059F000C2F200034FF000021A7040F28C03C2F2B0
:105A000000034FF000021A7040F2BC03C2F2000320
:105A10004FF000021A7040F2C603C2F200034FF0CA
:105A200000021A7040F23703C2F200034FF0000286
:105A30001A7040F20003C2F200031B78012B40F001
:105A400003814FF00600FAF7D5FC4FF00700FAF794
:105A5000D1FC4FF40063C4F201034FF400621A61F9
:105A60004FF03200FAF7E4FC4FF40063C4F2010394
:105A70004FF000621A6140F20003C2F200034FF0DF
:105A800000021A704FF48063C4F200034FF4806286
:105A9000C4F20002128A92B242F0010292B21A8259
:105AA0004FF00300FCF734F940F28C03C2F200031C
:105AB0001B78002B40F0AC8040F28C03C2F2000354
:105AC0004FF001021A7040F29C03C2F200031B78EF
:105AD00003F00103002B04D04FF06100FCF75EFBE4
